:05025000344310100111
:1001DF00D3EF9400EE940040147D6E7C00ED1D7003
:0D01EF00011CED4C70F7EF1F70E61E80E361
:0101FC0022E0
:1001C000E4FEEF30E704D2948002C294EF25E0FF12
:0E01D000D291309203430701C2910EBE08E4A3
:0101DE0022FE
:100217007F027E001201DFC290D293C291D2952253
:0C023700C2931201C0E4FF1201C0D29378
:010243002298
:0901FD007D017F211202067F2220
:10020600C2931201C0AC07AF051201C0D293AF046E
:0102160022C5
:060112008B198A1A891BFB
:10011800C2931201C0AD07E4FCECC3951C5017E470
:10012800FF1201C0AB19AA1AA91B8C82758300EFB4
:0A0138001200F00C80E3D293AF0533
:01014200229A
:0B009A007BFF7A0279507517057F2A62
:0600A5008B148A15891678
:1000AB00C2931201C0AD07E4FCECC395175018AB1B
:1000BB00140516E516AA157002051514F91200D7CA
:0B00CB00FF1201C00C80E2D293AF05D1
:0100D6002207
:100003008B108A118912C2907BFF7A02795075177F
:10001300057F301200A512009AAB10AA11A9127520
:1000230017087FA01200A51201FD7D0A7F2412028A
:10003300067D407F251202067D077F261202067D7C
:0F0043000E7F20120206D2907F057E000201DFA1
:10017100C29012009A1201FD7D407F251202067D78
:10018100087F311202061D7F261202067D0F7F2095
:0C019100120206D2907F057E000201DF02
:10019D007F071202378F202005033004137DFF7F68
:1001AD0027120206C2937FE11201C0D2937F002273
:0301BD007F01229D
:060143008B1D8A1E891FBE
:10014900E4FB7F071202378F20300612C290AB1DE5
:10015900AA1EA91F751C087F611201127B017DFF70
:070169007F27120206AF031D
:01017000226C
:100227003F065B4F666D7D077F6F777C395E79711F
:10005200120217900228E493F50890022CE493F51B
:1000620009A3E493F50A90022FE493F50B90022979
:10007200E493F50CA3E493F50D900230E493F50EAE
:1000820090022BE493F50F7B007A007908120003AB
:0800920012019DEF60BD80F832
:03000000020244B5
:0C024400787FE4F6D8FD7581200200529E
:1000D700BB010689828A83E0225002E722BBFE0227
:0900E700E32289828A83E493225A
:1000F000F8BB010DE58229F582E5833AF583E8F046
:10010000225006E92582C8F622BBFE05E92582C8F1
:02011000F222D9
:00000001FF
