:0E0298000C0830187A10385A424A5200FFA65D
:0401E1007F0A7E0013
:1001E500D3EF9400EE940040147D707C00ED1D70FB
:0D01F500011CED4C70F7EF1F70E61E80E35B
:0102020022D9
:0D02A7007F3F7E00EF1F70011EEF4E70F7CD
:0102B4002227
:0D02B5007F047E02EF1F70011EEF4E70F7F8
:0102C2002219
:10020300D3EF9400EE94004009B295EF1F70F11EF6
:0302130080EE2258
:0C02EA007F2A7E00120203D2950202A7B8
:100216007F2A7E00120203D2951202A71202A702BB
:0202260002A72D
:0C02F6007FB27E02120203D2950202B514
:10018000AD07ED30E70512021680031202EAED30EA
:10019000E60512021680031202EAED30E5051202AE
:1001A0001680031202EAED30E405120216800312F3
:1001B00002EAED30E30512021680031202EAED3086
:1001C000E20512021680031202EAED30E105120286
:1001D0001680031202EAED30E0030202161202EA70
:0101E00022FC
:0302C3001202F62E
:0A02C600AF11120180AF1202018097
:0D02D0001202C3AF08120180AF08020180C6
:0D02DD001202C3AF09120180AF09020180B7
:100228001202F61202C6AF0A120180AF0A0201805A
:100238001202F61202C6AF0B120180AF0B02018048
:100248001202F61202C6AF0C120180AF0C02018036
:100258001202F61202C6AF0D120180AF0D02018024
:100268001202F61202C6AF0E120180AF0E02018012
:100278001202F61202C6AF0F120180AF0F02018000
:100288001202F61202C6AF10120180AF10020180EE
:1000030075B0F085B0145314F0E51464F070030276
:1000130000F375B0FE85B0145314F0E51464F0607A
:10002300441201E185B0145314F0E51464F0603513
:1000330085B014E5142482601B24C0601224E060A0
:100043000924F070121202D0800D1202DD80081212
:1000530002288003120238E51464F0600885B014A6
:100063005314F080F275B0FD85B0145314F0E51409
:1000730064F060441201E185B0145314F0E5146494
:10008300F0603585B014E5142483601B24C060122E
:1000930024E0600924F07012120248800D12025805
:1000A30080081202688003120278E51464F0600885
:1000B30085B0145314F080F275B0FB85B01453145B
:1000C300F0E51464F060291201E185B0145314F0D3
:1000D300E51464F0601A85B014E514241570031256
:1000E3000288E51464F0600885B0145314F080F2BC
:0100F30022EA
:0503020012000380FB66
:030000000200F407
:0C00F400787FE4F6D8FD75811402013B12
:10010000020302E493A3F8E493A34003F68001F210
:1001100008DFF48029E493A3F85407240CC8C33300
:10012000C4540F4420C8834004F456800146F6DFCF
:10013000E4800B0102040810204080900298E47EC5
:10014000019360BCA3FF543F30E509541FFEE493C4
:10015000A360010ECF54C025E060A840B8E493A38B
:10016000FAE493A3F8E493A3C8C582C8CAC583CAB6
:10017000F0A3C8C582C8CAC583CADFE9DEE780BE6E
:0102A6000057
:00000001FF
