:0E01B7000C0830187A10385A424A5200FFA63F
:04012E007F0A7E00C6
:10013200D3EF9400EE940040147D707C00ED1D70AE
:0D014200011CED4C70F7EF1F70E61E80E30E
:01014F00228D
:0D01C6007F3F7E00EF1F70011EEF4E70F7AF
:0101D3002209
:0D01D4007F047E02EF1F70011EEF4E70F7DA
:0101E10022FB
:10015000D3EF9400EE94004009B295EF1F70F11EAA
:0301600080EE220C
:0C01EF007F2A7E00120150D2950201C64A
:100163007F2A7E00120150D2951201C61201C602E7
:0201730001C6C3
:10008F00AD07ED30E70512016380031201EFED308C
:10009F00E60512016380031201EFED30E505120151
:1000AF006380031201EFED30E40512016380031248
:1000BF0001EFED30E30512016380031201EFED3024
:1000CF00E20512016380031201EFED30E105120129
:1000DF006380031201EFED30E0030201631201EFC1
:0100EF0022EE
:0301E2001201FB0C
:0A01E500AF1112008FAF1202008F5D
:0C01FB007FB27E02120150D2950201D4A6
:0F0199001201E2AF0812008FE508F4FF02008F99
:0F01A8001201E2AF0912008FE509F4FF02008F88
:100175001201FB1201E5AF0A12008FE50AF4FF0236
:02018500008FE9
:100187001201FB1201E5AF0B12008FE50BF4FF0222
:02019700008FD7
:1000F00020B40C12012E20B40630B4FD1201992058
:10010000B50C12012E20B50630B5FD1201A820B69F
:100110000C12012E20B60630B6FD12017520B7D0A4
:0E01200012012E20B7CA30B7FD12018780C22F
:050207001200F080FB75
:03000000020003F8
:0C000300787FE4F6D8FD75811302004AF6
:10000F00020207E493A3F8E493A34003F68001F2FE
:10001F0008DFF48029E493A3F85407240CC8C333F2
:10002F00C4540F4420C8834004F456800146F6DFC1
:10003F00E4800B01020408102040809001B7E47E99
:10004F00019360BCA3FF543F30E509541FFEE493B6
:10005F00A360010ECF54C025E060A840B8E493A37D
:10006F00FAE493A3F8E493A3C8C582C8CAC583CAA8
:10007F00F0A3C8C582C8CAC583CADFE9DEE780BE60
:0101C5000039
:00000001FF
