:0A06C100C0F9A4B0999282F880906D
:0906B700010E20010D1E010800D6
:070621001206417F017E007B
:10062800EF4E60147DC87C00ED1D70011CED4C7010
:08063800F7EF1F70EB1E80E8D4
:010640002297
:10064100C2B27F677E00EF1F70011EEF4E70F7D2BE
:0E065100B27E007F04EF1F70011EEF4E70F7A7
:01065F002278
:1005FD00C2B20FBF0000D2B20FBF00000FBF00008C
:10060D00A2B292007E007F08EF1F70011EEF4E70A8
:03061D00F7A20041
:0106200022B7
:10066000E4FD7C011205FDE433FFC43333335480D1
:0C067000FEEDC3134EFD0CBC09EAAF0503
:01067C00225B
:1005B5007E01EF139200EFC313FF30001BC2B20B95
:1005C500BB00000BBB0000D2B27A007B08EB1B70AE
:1005D500011AEB4A70F7801BC2B27A007B08EB1B4D
:1005E50070011AEB4A70F7D2B20BBB00010A0BBBC4
:0705F50000010A0EBE09BB64
:0105FC0022DC
:0D06AA001206217FCC1205B57F440205B574
:10067D001206217FCC1205B57FBE1205B51206609C
:09068D00AB07120660EFFEEBFF63
:010696002241
:100697001206217F331205B51206608F1512066008
:0206A7008F16AC
:0106A900222E
:1003C600E4F50FF510E510450F70031206AAE510C7
:1003D6006464450F60030204B012067DAC06AD07E7
:1003E600EC120273E4FBFA7980783D1200FB8F145D
:1003F6008E138D128C11AC0DE4120278AB14AA1375
:10040600A912A81112020160025002C294AC0EE4B5
:10041600120278AB14AA13A912A811120201400203
:10042600D294E4FFFE7D207C41AB14AA13A912A846
:10043600111200FBE4FBFAF9783F12000A1202AC33
:10044600AB07AA06C3EA64809480500C7509BFC343
:10045600E49BFBE49AFA800D7C037DE8AF03AE02D1
:1004660012032D8F097C037DE8AF03AE0212032D24
:10047600AA04AB057C007D64AF03AE0212032D8F88
:100486000A7C007D64AF03AE0212032DAA04AB05FD
:100496007C007D0AAF03AE0212032D8F0BAE02AFB6
:1004A600037C007D0A12032D8D0C0510E5107002E9
:1004B600050FB4B80AE50FB40B05E4F50FF51012F5
:0804C600055A1206CB0203CB1C
:10055A007580FFE50814601614601F1460302403C8
:10056A00703CC290D291D292D293E509802AD2905D
:10057A00C291D292D293E50A801ED290D291C292AF
:10058A00D293E50B9006C193547FF5808010D290E8
:10059A00D291D292C293E50C9006C193F5800508D8
:0B05AA00E508D394034003E4F50822A9
:0806CB007F0AAE071FEE70FA72
:0106D3002204
:10000300020318E86480F8E933E83360110460F010
:10001300ED33EC337009E8FCE9FDEAFEEBFF220463
:1000230060DED3EB9FEA9EE99DE8C2E78CF0C2F75E
:1000330095F0400CE8CCF8E9CDF9EACEFAEBCFFB2A
:100043001202E385D0F05804700320D5B3E804709E
:10005300075002B2D502032292D5EC0460F7E4CC38
:10006300C0E0C398F8603B94186008400DD0E0FBF3
:100073000202FAE4FBFAC9FC8028E830E406E4C98A
:10008300FBE4CAFCE830E305E4C9CACBFCE8540747
:100093006010F8C3E913F9EA13FAEB13FBEC13FC52
:1000A300D8F130F52FC3E49CFCEF9BFFEE9AFEEDF5
:1000B30099FDD0E0FBEF4E4D4C701222DB0302039F
:1000C3001FEC2CFCEF33FFEE33FEED33FDED30E799
:1000D300EB0202FAEF2BFFEE3AFEED39FDD0E0FB27
:1000E30050130BBB0003020322ED13FDEE13FEEFCF
:0800F30013FFEC13FC0202FAFA
:1000FB00EC4D6011E8497017ED33EC3304600DE4FF
:10010B00FCFFFEFD22E933E8330470F802031812FA
:10011B0002E358046009E4CC2481500628500902FC
:10012B00032228400302031FC0E0EB4A7044B9804E
:10013B0006D0E0FB02030EEF4E701CBD8008EBFFF8
:10014B00EAFEE9FD80EBE98DF0A4FEE5F00201E4A7
:10015B00E9CDF9EAFEEBFFEF89F0A4FCE5F0CE89DF
:10016B00F0A42EFFE435F0CD89F0A42DFEE435F09C
:10017B008067EF4E7005BD80D780C3EF8BF0A4ACCA
:10018B00F0EE8BF0A42CFCE435F0F8EF8AF0A42C05
:10019B00E5F038FCE433CB8DF0A42CFCE5F03BF818
:1001AB00EE8AF0A42CFCE5F038F8E433CF89F0A408
:1001BB002CFCE5F038CF3400CE89F0A42FFFE5F00E
:1001CB003EFEE433C98DF0A42EFEE5F039CD8AF066
:1001DB00A42FFFE5F03EFEE43DFD33D0E0FB5007DE
:1001EB000BBB000F020322EC2CFCEF33FFEE33FEB4
:0601FB00ED33FD0202FAE3
:1002010074F8CC6480CCC86480C8F582046043C3B0
:10021100EB9FF5F0EA9E42F0E99D42F0E89C45F043
:1002210060305018E5825FFFE582F42B5582FB5068
:10023100210ABA001D09B90019088016E5825BFB85
:10024100E582F42F5582FF50090EBE00050DBD0059
:10025100010CC3EB9FF5F0EA9E42F0E99D42F0E804
:0D0261009C45F06007CC4820E701B3EC227B
:10026E0075F020800E75F010800575F0087D007E0B
:10027E00007F003392D530D503120363EC33401068
:10028E00EF33FFEE33FEED33FDEC33FCD5F0ED2214
:0E029E00E5F0247EA2D513CC92E7CDCEFF2250
:1002AC00EDD2E7CD33EC3392D524814006E4FFFE4A
:1002BC00FDFC22FCE4CFCECDCC24E0501174FF80A9
:1002CC00EDC3CC13CCCD13CDCE13CECF13CF047046
:0702DC00F030D5DE020363E0
:1002E300E9D2E7C933E833F892D5EDD2E7CD33EC61
:0702F30033FC5002B2D522DA
:1002FA00EC30E7100FBF000C0EBE00080DBD000465
:10030A000BEB6014A2D5EB13FCED92E7FD2274FF10
:10031A00FCFDFEFF22E480F8A2D574FF13FC7D8069
:03032A00E480EF7D
:030000000204CE29
:0C04CE00787FE4F6D8FD7581200205154A
:10032D00C2D5EC30E709B2D5E4C39DFDE49CFCEEEB
:10033D0030E715B2D5E4C39FFFE49EFE120371C3EF
:10034D00E49DFDE49CFC800312037130D507C3E4EA
:06035D009FFFE49EFE225A
:0E036300C3E49FFFE49EFEE49DFDE49CFC22AB
:1004DA000203C6E493A3F8E493A34003F68001F26F
:1004EA0008DFF48029E493A3F85407240CC8C33323
:1004FA00C4540F4420C8834004F456800146F6DFF2
:10050A00E4800B01020408102040809006B7E47EC4
:10051A00019360BCA3FF543F30E509541FFEE493E6
:10052A00A360010ECF54C025E060A840B8E493A3AD
:10053A00FAE493A3F8E493A3C8C582C8CAC583CAD8
:10054A00F0A3C8C582C8CAC583CADFE9DEE780BE90
:0106C0000039
:10037100BC000BBE0029EF8DF084FFADF022E4CC70
:10038100F875F008EF2FFFEE33FEEC33FCEE9DEC39
:10039100984005FCEE9DFE0FD5F0E9E4CEFD22ED7F
:1003A100F8F5F0EE8420D21CFEADF075F008EF2FC9
:1003B100FFED33FD4007985006D5F0F222C398FDBA
:0503C1000FD5F0EA2257
:00000001FF
