:10016D003F065B4F666D7D077F6FFEFDFBF7EFDF93
:02017D00BF7F42
:09018B000112000113010108003A
:03000300DFFE22FB
:10014600AE07AF061EEF600C7FF51200037FF512B7
:05015600000380EE2211
:10015B0030B4FD30B5FD7F0A12014630B4FD30B529
:02016B00FD2273
:1000E10012017F20B40BE513C39413501005138044
:1000F1000C20B50CE513D394014002151312015BDA
:10010100E51314FF75F00A8490016D93F50AEF75FC
:0A011100F00A84E5F093F50B80C9B5
:10011B00E4F580D2A6C2A6E5082F90017793F5806F
:10012B00D2A7C2A7740A2508F8E6F580D2A6C2A604
:0A013B000508E508B50503E4F50822
:010145002297
:0C017F00438901D2AFD2A9D28CD2B922A0
:03000B0002009A56
:10009A00C0E0C083C082C0D075D000C000C005C017
:0100AA00074E
:1000AB00758CFC758A187D08E4FF12011BE513148F
:1000BB00FFE509D39F4004C2938002D2930509E563
:0700CB0009B41303750900DD
:0F00D200D007D005D000D0D0D082D083D0E0327C
:0300000002000EED
:0C000E00787FE4F6D8FD758120020055D3
:10001A000200E1E493A3F8E493A34003F68001F21B
:10002A0008DFF48029E493A3F85407240CC8C333E7
:10003A00C4540F4420C8834004F456800146F6DFB6
:10004A00E4800B010204081020408090018BE47EBA
:10005A00019360BCA3FF543F30E509541FFEE493AB
:10006A00A360010ECF54C025E060A840B8E493A372
:10007A00FAE493A3F8E493A3C8C582C8CAC583CA9D
:10008A00F0A3C8C582C8CAC583CADFE9DEE780BE55
:01019400006A
:00000001FF
