:1000970000F8008B00F9005B00FA001700FA006B0C
:0C00A70000FB000700FB009200FC000DB5
:10000E001200CEE4F508F509E50825E02497F582FF
:10001E00E43400F583740193F58CE50825E024990A
:10002E00F582E43400F583E4740193F58AD28C12E0
:10003E0000B3C28CD2957F307E751200B7050805CD
:10004E00080509E509C3940740BE1200B31200B3B8
:02005E0080B16F
:0A00CE00758901D2AFD2A9C28C22BD
:03000B0002006090
:10006000C0E0C083C082C0D0E50825E02497F582B7
:10007000E43400F583740193F58CE50825E02499B8
:10008000F582E43400F583740193F58AB295D0D0FB
:07009000D082D083D0E032E2
:0400B3007F507EC339
:0B00B700EF1FAC0670011E4C70F6221B
:030000000200C239
:0C00C200787FE4F6D8FD75810902000E7D
:00000001FF
