:100274003F065B4F666D7D077F6F777C395E7971D2
:03000300014200B7
:10023900D2A000D2A10000000000C2A0000000006E
:0602490000C2A10000222A
:10026300C2A000D2A10000000000D2A00000000044
:010273002268
:10010100E4FEEFA806088002C333D8FC30E704D22E
:10011100A08002C2A000D2A10000000000C2A10E76
:10012100BE08DF0000D2A00000D2A100000030A074
:0B01310004C2008002D200C2A1000046
:01013C0022A0
:1001C600E4FFD2A0FE00C2A10000000000D2A10000
:1001D60000EF25E0FF30A0010F00000EBE08E6C2CA
:0301E600A1000075
:0101E90022F3
:10022100200104C2A08002D2A0000000D2A10000DF
:08023100000000C2A100002240
:10017400AE07AC03120239120101200002C322EDC2
:100184004440FF120101200002C322AF0412010106
:0A019400200002C322120263D322EE
:1001EA00120239120101200002C322ED4440FF121B
:0C01FA000101200002C322120263D32284
:10020600120239EF04FF1201012000037F002212BF
:0A02160001C6D20112022112026398
:0102200022BB
:06024F002430F5997FC880
:0D025500EFD3940040077E7DDEFE1F80F396
:010262002279
:10019E00AD07ED75F0648412024FED75F00A8475AB
:1001AE00F00A84E5F012024FED75F00A84E5F024B2
:0801BE0030F5997FC8020255DB
:0F028400438901E4F58CF58AD2AFD2A9D28C223E
:10009A00120284C2A4E52275F06484FFE52275F099
:1000AA000A8475F00A84AEF0E52275F00A84ADF090
:1000BA00EF90027493F580D2A6C2A67580DFD2A70C
:1000CA00C2A77580FFD2A7C2A7ED93F580D2A6C2B8
:1000DA00A675807FD2A7C2A77580FFD2A7C2A7EE56
:1000EA0093F580D2A6C2A67580BFD2A7C2A7758093
:0700FA00FFD2A7C2A7809E00
:03000B0002013DB2
:10013D00C0E0C0D075D000C000C005C006C00775B6
:10014D008C00758A00E4FD7F901201EA7F90120207
:10015D00068F23C374FF9523F522D007D006D00553
:07016D00D000D0D0D0E03239
:0300000002000EED
:0C000E00787FE4F6D8FD758142020055B1
:10001A0002009AE493A3F8E493A34003F68001F262
:10002A0008DFF48029E493A3F85407240CC8C333E7
:10003A00C4540F4420C8834004F456800146F6DFB6
:10004A00E4800B0102040810204080900003E47E43
:10005A00019360BCA3FF543F30E509541FFEE493AB
:10006A00A360010ECF54C025E060A840B8E493A372
:10007A00FAE493A3F8E493A3C8C582C8CAC583CA9D
:10008A00F0A3C8C582C8CAC583CADFE9DEE780BE55
:0100060000F9
:00000001FF
