:1000B70035203120B5A5C6ACBBFACAB5D1E9B0E544
:1000C70000207777772E6C79647A382E636F6D20EE
:1000D7002000D7D4D1A7B5A5C6ACBBFAB5C4CAD73B
:1000E700D1A100202051513A2035323932373032F0
:0400F700392020008C
:10006E001201C21201661202031201A77A007BB7B7
:10007E007D01E4FF1200037A007BC87D02E4FF12CB
:10008E0000037A007BD97D03E4FF1200037A007B24
:10009E00EA7D04E4FF1200031201C21201C2120132
:0900AE00C21201C212013C80C023
:1001F0008F0C1201DBD290C291850C80D292D292E8
:03020000C2922285
:06018A007D017C007F08EE
:100190008F0CED4C60031201DBC290C291850C8084
:0701A000D292D292C292221A
:0C021200D290D291D292D292AF80C292D0
:01021E0022BD
:1001DB007580FFC290D291D292D292E58020E7FB3C
:0501EB00C2927F012219
:100166007D017C007F301201907D017C007F0112B1
:1001760001907D017C007F061201907D017C007F4D
:040186000C020190D6
:1001A7007D017C007F011201907D017C007F34126C
:0B01B70001907D017C007F3002019070
:10013C0012018A1201C27D017C007F0C1201901207
:10014C0001C212018A1201C27D017C007F0C1201D6
:0A015C00901201C212018A0201C2D2
:1000FB008B0DEDC3940150027D01EDD394044002AE
:10010B007D0453070FED24FE600F14601114601370
:10011B0024037012430780800D4307908008430728
:10012B00888003430798E4FDFC120190AF0D020198
:01013B00F0D3
:060003008F088A098B0A38
:10000900E4F50BEDC3940150027D01EDD394044056
:10001900027D0453080FED24FE600F146011146073
:100029001324037012430780800D4307908008430F
:10003900078880034307987D017C00120190E50A37
:10004900250BF582E43509F583E493FFC394204039
:1000590013E508D3940F50E61201F0050B050812B9
:04006900020380DA34
:01006D002270
:0E0203007FB07E15EF1FAC0670011E4C70F62A
:0102110022CA
:1001C2007D05AC051DEC60107E1C7F65EF1FAA0645
:0801D20070011E4A60EC80F48C
:0101DA002202
:0300000002021FDA
:0C021F00787FE4F6D8FD75810D02006EBA
:00000001FF
