:1000F700D2A000D2A10000000000C2A000000000B2
:0601070000C2A10000226D
:10010D00C2A000D2A10000000000D2A0000000009B
:01011D0022BF
:10000300E4FEEFA806088002C333D8FC30E704D22D
:10001300A08002C2A000D2A10000000000C2A10E75
:10002300BE08DF0000D2A00000D2A100000030A073
:0B00330004C2008002D200C2A1000045
:01003E00229F
:10006900E4FFD2A0FE00C2A10000000000D2A1005E
:1000790000EF25E0FF30A0010F00000EBE08E6C228
:03008900A10000D3
:01008C002251
:1000DF00200104C2A08002D2A0000000D2A1000023
:0800EF00000000C2A100002284
:10003F00AE07AC031200F7120003200002C322ED3B
:10004F004440FF120003200002C322AF041200033A
:0A005F00200002C32212010DD3227B
:10008D001200F7120003200002C322ED4440FF12BC
:0C009D000003200002C32212010DD32238
:1000A9001200F7EF04FF1200032000037F00221261
:0A00B9000069D2011200DF12010DF0
:0100C300221A
:1000C400C2A47D037F9012008D7F901200A98F251A
:0B00D400AB25E4FD7F9012003F80E7A9
:0300000002011EDC
:0C011E00787FE4F6D8FD7581420200C431
:00000001FF
