:0901BE00D2A3C2A5D2A6C2A72259
:100186003F065B4F666D7D077F6F777C395E7971C1
:010196000068
:040164007F0A7E0090
:10016800D3EF9400EE940040147D707C00ED1D7078
:0D017800011CED4C70F7EF1F70E61E80E3D8
:010185002257
:0C01A600EF90018693F580D2A6C2A6223D
:1000030075B0FE85B0085308F0E50864F060491246
:10001300016485B0085308F0E50864F0603A85B0E0
:1000230008E5082482601B24C0601224E0600924D0
:10003300F07012E4F509800D750901800875090255
:100043008003750903E50864F0600885B008530868
:10005300F080F2AF091201A675B0FD85B008530810
:10006300F0E50864F0604912016485B0085308F0B4
:10007300E50864F0603A85B008E5082483601B2432
:10008300C0601224E0600924F07012750904800D29
:1000930075090580087509068003750907E5086475
:1000A300F0600885B0085308F080F2AF091201A68A
:1000B30075B0FB85B0085308F0E50864F060491299
:1000C300016485B0085308F0E50864F0603A85B030
:1000D30008E5082485601B24C0601224E06009241D
:1000E300F07012750908800D750909800875090AF1
:1000F300800375090BE50864F0600885B0085308B0
:10010300F080F2AF091201A675B0F785B008530865
:10011300F0E50864F0604912016485B0085308F003
:10012300E50864F0603A85B008E5082489601B247B
:10013300C0601224E0600924F0701275090C800D70
:1001430075090D800875090E800375090FE50864AC
:10015300F0600885B0085308F080F2AF091201A6D9
:010163002279
:0F0197001201BEE4F580D2A7C2A712000380FBBD
:030000000201B248
:0C01B200787FE4F6D8FD75810902019702
:00000001FF
