:10065300323031362D30342D323620545545003169
:08066300303A33323A3438001A
:0F05A8008F807F017E001205B7D2A57F017E00F4
:1005B700D3EF9400EE940040147D6E7C00ED1D7027
:0D05C700011CED4C70F7EF1F70E61E80E385
:0105D4002204
:08000300C2901205A8C2A5225B
:0806A400FF120003EA2430FFFD
:0806AC00D2901205A8C2A5229C
:0405FD00AD0A7F0ABA
:10060100ED75F00A84ABF0ED75F00A84FAEF24C0C1
:0A0611001206A4EB2430FF0206AC31
:04061B00AD107F0A95
:10061F00ED75F00A84ABF0ED75F00A84FAEF2480E3
:0A062F001206A4EB2430FF0206AC13
:10044500AB077F8D120003EB14B4070040030204D1
:10045500D790046475F003A4C58325F0C5837302A2
:10046500047902048202049002049E0204AC020490
:10047500BA0204C87F4D1206AC7F4F804D7F5412DF
:1004850006AC7F551206AC7F4580447F571206ACFB
:100495007F451206AC7F4480367F541206AC7F48F8
:1004A5001206AC7F5580287F461206AC7F52120695
:1004B500AC7F49801A7F531206AC7F541206AC7F7D
:1004C50041800C7F531206AC7F551206AC7F4E124D
:0304D50006AC2250
:10055B00C2917F381200037F0C1200037F0612003A
:10056B00037F011200037F82120003E4F511E511F2
:10057B0090065393FF1206AC0511E511C3940E4080
:10058B00ED7FC4120003E4F511E51190066293FFB1
:0D059B001206AC0511E511C3940840ED22D5
:06063900C2A4C2A1D2A47C
:10063F00EFD2A4751108A2E092A0C2A1D2A1C31358
:04064F00D511F322AC
:10066B00D2A4751108A2A092E7D2A1C2A1C313D53F
:04067B0011F3FF2256
:1005D500E50A75F00A84C454F0FFE50A75F00A844B
:0905E500EF25F0F50CE4FD7F8E1A
:0F05EE00AE05120639AF0612063FD2A1C2A422F3
:0A06DD0012063912066BD2A1C2A466
:0106E70022F0
:03067F001206DD83
:10068200EFC4540FFEEF540FFDEE75F00AA42DFFD8
:010692002245
:10034F00C2A4C2A1AD0A7F801205EE1205EA900683
:10035F0068E49324D075F00AA4FFA3E49324D02F6C
:10036F00F50A75F00A84C454F0FFE50A75F00A84A3
:10037F00EF25F0F50CFD7F801205EE900665E493F6
:10038F0024D075F00AA4FFA3E49324D02FF50D75A4
:10039F00F00A84C454F0FFE50D75F00A84EF25F0E0
:1003AF00F50CFD7F821205EE900662E49324D07562
:1003BF00F00AA4FFA3E49324D02FF50E75F00A845E
:1003CF00C454F0FFE50E75F00A84EF25F0F50CFD2F
:1003DF007F841205EE90065BE49324D075F00AA497
:1003EF00FFA3E49324D02FF51075F00A84C454F0C2
:1003FF00FFE51075F00A84EF25F0F50CFD7F8612EE
:10040F0005EE900658E49324D075F00AA4FFA3E4F8
:10041F009324D02FF50F75F00A84C454F0FFE50F25
:10042F0075F00A84EF25F0F50CFD7F881205EE7D3F
:06043F00807F8E0205EE35
:10000E00C2B730B0030200A77F057E001205B730DD
:10001E00B0030200A730B0FD0512E512B409037556
:10002E001201E51214B40800506F90004675F003EB
:10003E00A4C58325F0C5837302005E02007402001E
:10004E007802007C02008002008402008802008F89
:10005E00C28C7FCB1200037F0F1200031205D5E571
:10006E000C4480FD80277FC880127FC5800E7F8F55
:10007E00800A7F8B80067F8880027F851200038036
:10008E00187F0C120003D28C1205D5AD0C7F801296
:10009E0005EE7D807F8E1205EEE512700302034E93
:1000AE0030B1030202087F057E001205B730B1039E
:1000BE0002020830B1FDE51214B40700400302023B
:1000CE00089000DD75F003A4C58325F0C583730287
:1000DE0000F202011802014B02017E02019202019E
:1000EE00C00201F2050AE50AB43C03E4F50A120562
:1000FE00FD1205D5E50C4480FD7F801205EE7D8056
:10010E007F8E1205EE7FCB020205050DE50DB43C88
:10011E0003E4F50DAD0D7F07120601E50D75F00A2E
:10012E0084C454F0FFE50D1205E1AD0C7F8212057B
:10013E00EE7D807F8E1205EE7FC8020205050EE56C
:10014E000EB41803E4F50EAD0E7F04120601E50E93
:10015E0075F00A84C454F0FFE50E1205E1AD0C7F74
:10016E00841205EE7D807F8E1205EE7FC50202059C
:10017E00050BE50BB40803E4F50BAF0B1204457F3A
:10018E008F0202050510E510B41F03E4F5101206E8
:10019E001BE51075F00A84C454F0FFE5101205E15A
:1001AE00AD0C7F861205EE7D807F8E1205EE7F8B65
:1001BE008045050FE50FB40D03E4F50FAD0F7F0776
:1001CE0012061FE50F75F00A84C454F0FFE50F12F6
:1001DE0005E1AD0C7F881205EE7D807F8E1205EE57
:1001EE007F8880130509E509B46403E4F509AD09B8
:1001FE007F0412061F7F8512000330B20302034EE6
:10020E007F057E001205B730B20302034E30B2FDF9
:10021E00E51214B40700400302034E90023775F046
:10022E0003A4C58325F0C5837302024C02025E024D
:10023E0002910202C40202D8020306020338150A12
:10024E00E50AB4FF03750A3B1205FD7FCB02034B93
:10025E00150DE50DB4FF03750D3BAD0D7F071206B1
:10026E0001E50D75F00A84C454F0FFE50D1205E1A9
:10027E00AD0C7F821205EE7D807F8E1205EE7FC85B
:10028E0002034B150EE50EB4FF03750E17AD0E7F70
:10029E0004120601E50E75F00A84C454F0FFE50E53
:1002AE001205E1AD0C7F841205EE7D807F8E120566
:1002BE00EE7FC502034B150BE50BB4FF03750B0761
:1002CE00AF0B1204457F8F02034B1510E510B4FFE0
:1002DE000375101E12061BE51075F00A84C454F047
:1002EE00FFE5101205E1AD0C7F861205EE7D807FD5
:1002FE008E1205EE7F8B8045150FE50FB4FF03754B
:10030E000F0CAD0F7F0712061FE50F75F00A84C4A0
:10031E0054F0FFE50F1205E1AD0C7F881205EE7D5E
:10032E00807F8E1205EE7F8880131509E509B4FFD4
:10033E0003750963AD097F0412061F7F8512000342
:01034E00228C
:0F06B400758911E4F58CF58AD2AFD2A9D28C22C8
:0E06C300D2A6E4F580C2A6D2A7F580C2A72277
:100693001206C312055B12034F1206B412000E803A
:0106A300FB5B
:03000B000204D814
:1004D800C0E0C0F0C0D075D000C002C003C004C0E6
:1004E80005C006C0077F8112067F8F0A7F83120628
:1004F8007F8F0D7F851206DD1206828F0E7F871291
:1005080006DD1206828F107F891206DD1206828FA1
:100518000F7F8D1206DD1206828F097F8B1206DD92
:100528001206828F0B1205FDAD0D7F07120601AD75
:100538000E7F0412060112061BAD0F7F0712061F5D
:10054800D007D006D005D004D003D002D0D0D0F048
:03055800D0E032BE
:030000000206D124
:0C06D100787FE4F6D8FD758112020693D4
:00000001FF
