:03027A000142003E
:10023D00D2A000D2A10000000000C2A0000000006A
:06024D0000C2A100002226
:10026900C2A000D2A10000000000D2A0000000003E
:010279002262
:10011100E4FEEFA806088002C333D8FC30E704D21E
:10012100A08002C2A000D2A10000000000C2A10E66
:10013100BE08DF0000D2A00000D2A100000030A064
:0B01410004C2008002D200C2A1000036
:01014C002290
:1001AB00E4FFD2A0FE00C2A10000000000D2A1001B
:1001BB0000EF25E0FF30A0010F00000EBE08E6C2E5
:0301CB00A1000090
:0101CE00220E
:10020D00200104C2A08002D2A0000000D2A10000F3
:08021D00000000C2A100002254
:10018100AE07AC0312023D120111200002C322EDA1
:100191004440FF120111200002C322AF04120111D9
:0A01A100200002C322120269D322DB
:1001F10012023D120111200002C322ED4440FF1200
:0C0201000111200002C322120269D32266
:0701CF007F901201F17F9007
:1001D60012023DEF04FF1201112000037F002212DC
:0A01E60001ABD20112020D120269F2
:0101F00022EC
:10022500D2AFD2ACD2AB758920E4F58775985075FD
:080235008DFD758BFDD28E22B8
:0802530012014D7599207FC8CE
:0D025B00EFD3940040077E7DDEFE1F80F390
:010268002273
:10014D00AD07ED75F064842430F5997FC812025B1C
:10015D00ED75F00A8475F00A84E5F02430F5997F89
:10016D00C812025BED75F00A84E5F02430F5997F35
:04017D00C802025B57
:10008F00120225C2A4E54214601614601C146022EB
:10009F001460282404702D7D011201CF8F2280243B
:1000AF007D021201CF8F23801B7D031201CF8F247E
:1000BF008012E4FD1201CF8F258009AB26E4FD7F6E
:1000CF00901201818525260542E542D39404400311
:1000DF00E4F5427FC812025BAF22120253AF231224
:1000EF000253AF24120253AF2512014D75990A7FA7
:1000FF00C812025B30988E859921852199C298028A
:02010F0000945A
:03000000020003F8
:0C000300787FE4F6D8FD75814202004AC7
:10000F0002008FE493A3F8E493A34003F68001F278
:10001F0008DFF48029E493A3F85407240CC8C333F2
:10002F00C4540F4420C8834004F456800146F6DFC1
:10003F00E4800B010204081020408090027AE47ED5
:10004F00019360BCA3FF543F30E509541FFEE493B6
:10005F00A360010ECF54C025E060A840B8E493A37D
:10006F00FAE493A3F8E493A3C8C582C8CAC583CAA8
:10007F00F0A3C8C582C8CAC583CADFE9DEE780BE60
:01027D000080
:00000001FF
