:10010A00D2A000D2A10000000000C2A0000000009E
:06011A0000C2A10000225A
:10012000C2A000D2A10000000000D2A00000000088
:0101300022AC
:10000300E4FEEFA806088002C333D8FC30E704D22D
:10001300A08002C2A000D2A10000000000C2A10E75
:10002300BE08DF0000D2A00000D2A100000030A073
:0B00330004C2008002D200C2A1000045
:01003E00229F
:10009700E4FFD2A0FE00C2A10000000000D2A10030
:1000A70000EF25E0FF30A0010F00000EBE08E6C2FA
:0300B700A10000A5
:0100BA002223
:1000F200200104C2A08002D2A0000000D2A1000010
:08010200000000C2A100002270
:10006D00AE07AC0312010A120003200002C322EDF9
:10007D004440FF120003200002C322AF041200030C
:0A008D00200002C322120120D3223A
:1000BB0012010A120003200002C322ED4440FF127A
:0C00CB000003200002C322120120D322F7
:1000D70012010AEF04FF1200032000037F0022121F
:0A00E7000097D2011200F21201206E
:0100F10022EC
:10003F00C2A4E4FD7F901200BB7F901200D78F22E5
:10004F00E522D394784003752278E522C31375F027
:0E005F0003A4F522FBE4FD7F9012006D80D417
:03000000020131C9
:0C013100787FE4F6D8FD75814202003FA3
:00000001FF
