:1005F6003D3D52616E67652046696E6465723D3D9C
:1006060000303132333435363738392E2D4D446982
:100616007374616E63653A3030302E30636D00213D
:100626002121204F7574206F662072616E67650008
:10076F00040F0000000002080000040A000000004F
:05077F00C100010E00A5
:0C06B200E4FDFC7F381200037F057E0091
:1006BE00D3EF9400EE940040147D707C00ED1D701D
:0D06CE00011CED4C70F7EF1F70E61E80E37D
:0106DB0022FC
:100750007F01120767C2917F01120767C2A57F015F
:07076000120767C2A57F012B
:070767007E0A00DEFDDFF950
:01076E002268
:0807E500D2A6E4F580C2A622B1
:10072D007580FFC2907F01120767D2917F0112077A
:10073D006712075CD2A57F01120767E58020E7F1FC
:03074D00AF802258
:10079A00AD0712072D8D80D290120750D2A57F0186
:0307AA00020767DC
:10000300AB07ED4C600312072D8B80C29012075093
:07001300D2A57F010207677F
:1006DC00E4F5801206B31206B21206B27D017C005C
:1006EC007F381200037F081200037F011200037F82
:0906FC00061200037F0C0200034A
:0707050090060793FB7D0144
:10070C00AE07AA0353050153060FED6003430640E1
:10071C00430680AF067D017C00120003AF02020786
:01072C009A32
:080636007A067B147D01E4FF4C
:08063E008D158A168B17A90720
:10064600E4F51853150153010FE5172518F582E453
:100656003516F583E493FBD394194012E9D3940F2E
:0E06660050E7AF01AD1512070C05180980DB37
:010674002263
:0A07AD00D2A17F02120767C2A12249
:0907C100D293D296C292C2972293
:0907CA00C292C293C296C29722AA
:0907D300D292C293C296D2972281
:0907DC00C292D293C296D2972278
:10067500AF8DEFFEAD8B7C00E42DF509EC3EF50862
:10068500E4F58DF58BAC08AD091202217B7B7A145C
:10069500792E783E120116E4FBFA79207841120092
:0D06A5002512025A8F0D8E0C8D0B8C0A222F
:1003C800120675E47F887E13FDFCAB0DAA0CA90B01
:1003D800A80AC31203B75003300012E4F50EC20096
:1003E8007A067B257D01FF12063E02048EE47B0A15
:1003F800FAF9F8AF0DAE0CAD0BAC0A120317AF0348
:100408008F0FE47B0AFAF9F8AF0DAE0CAD0BAC0A0E
:10041800120317E47B0AFAF9F8120317AF038F10D7
:10042800E47B64FAF9F8AF0DAE0CAD0BAC0A12031D
:1004380017E47B0AFAF9F8120317AF038F11E47B6C
:10044800E87A03F9F8AF0DAE0CAD0BAC0A1203173E
:100458008F12120636E5127F09120705E51193FB84
:100468007D017F0A12070CE51093FB7D017F0B12BB
:10047800070C900611E493FB7D017F0C12070CE535
:100488000F7F0D120705E47FF0FEFDFCAB0DAA0CF3
:10049800A90BA80AD31203B7506F050EC3E50E6463
:1004A8008094824062E4F50EC2A31207CA1207D3F1
:1004B8007FE6FE1206BE1207DC7F327E001206BE01
:1004C8001207CA7F647E001206BE1207AD30A0FD77
:1004D800D28E20A0FDC28E120675E47F547E01FDE7
:1004E800FCAB0DAA0CA90BA80AD31203B740C7127C
:1004F80007DC7F5A7E001206BE1207CA7FC87E003C
:0F0508001206BED2A380058003E4F50E1207C1D0
:0105170022C1
:03001B000207EDEC
:0507ED00D200C2A032A1
:0A07B700D28E20A0FDC28E0203C8FE
:1007850020B7FD7F0A7E001206BE20B7F3C2A33054
:04079500B7FDD2A337
:01079900223D
:1005A4001207E57F907E011206BE1206DC1206BA1F
:1005B4007A057BF6E4FDFF12063E120636438910E7
:1005C400D2AFE4F58DF58BD2AB120785D2A012071A
:1005D400AD7513037514B730A0031207B7E51415EE
:1005E4001470021513D3E5149400E513940050E736
:0205F40080DAAB
:10001E000202C6E86480F8E933E83360110460F048
:10002E00ED33EC337009E8FCE9FDEAFEEBFF220448
:10003E0060DED3EB9FEA9EE99DE8C2E78CF0C2F743
:10004E0095F0400CE8CCF8E9CDF9EACEFAEBCFFB0F
:10005E0012029185D0F05804700320D5B3E80470D5
:10006E00075002B2D50202D092D5EC0460F7E4CC70
:10007E00C0E0C398F8603B94186008400DD0E0FBD8
:10008E000202A8E4FBFAC9FC8028E830E406E4C9C1
:10009E00FBE4CAFCE830E305E4C9CACBFCE854072C
:1000AE006010F8C3E913F9EA13FAEB13FBEC13FC37
:1000BE00D8F130F52FC3E49CFCEF9BFFEE9AFEEDDA
:1000CE0099FDD0E0FBEF4E4D4C701222DB03020285
:1000DE00CDEC2CFCEF33FFEE33FEED33FDED30E7D0
:1000EE00EB0202A8EF2BFFEE3AFEED39FDD0E0FB5E
:1000FE0050130BBB00030202D0ED13FDEE13FEEF07
:08010E0013FFEC13FC0202A830
:10011600EC4D6011E8497017ED33EC3304600DE4E3
:10012600FCFFFEFD22E933E8330470F80202C61232
:10013600029158046009E4CC248150062850090233
:1001460002D02840030202CDC0E0EB4A7044B980D9
:1001560006D0E0FB0202BCEF4E701CBD8008EBFF30
:10016600EAFEE9FD80EBE98DF0A4FEE5F00201FF71
:10017600E9CDF9EAFEEBFFEF89F0A4FCE5F0CE89C4
:10018600F0A42EFFE435F0CD89F0A42DFEE435F081
:100196008067EF4E7005BD80D780C3EF8BF0A4ACAF
:1001A600F0EE8BF0A42CFCE435F0F8EF8AF0A42CEA
:1001B600E5F038FCE433CB8DF0A42CFCE5F03BF8FD
:1001C600EE8AF0A42CFCE5F038F8E433CF89F0A4ED
:1001D6002CFCE5F038CF3400CE89F0A42FFFE5F0F3
:1001E6003EFEE433C98DF0A42EFEE5F039CD8AF04B
:1001F600A42FFFE5F03EFEE43DFD33D0E0FB5007C3
:100206000BBB000F0202D0EC2CFCEF33FFEE33FEEB
:06021600ED33FD0202A819
:10021C0075F020800E75F010800575F0087D007E5D
:10022C00007F003392D530D5031203A9EC33401074
:10023C00EF33FFEE33FEED33FDEC33FCD5F0ED2266
:0E024C00E5F0247EA2D513CC92E7CDCEFF22A2
:10025A00EDD2E7CD33EC3392D524814006E4FFFE9C
:10026A00FDFC22FCE4CFCECDCC24E0501174FF80FB
:10027A00EDC3CC13CCCD13CDCE13CECF13CF047098
:07028A00F030D5DE0203A9EC
:10029100E9D2E7C933E833F892D5EDD2E7CD33ECB3
:0702A10033FC5002B2D5222C
:1002A800EC30E7100FBF000C0EBE00080DBD0004B7
:1002B8000BEB6014A2D5EB13FCED92E7FD2274FF63
:1002C800FCFDFEFF22E480F8A2D574FF13FC7D80BC
:0302D800E480EFD0
:03000000020518DE
:0C051800787FE4F6D8FD75812002055FB5
:1002DB0075F008758200EF2FFFEE33FECD33CDCCDA
:1002EB0033CCC58233C5829BED9AEC99E58298405D
:1002FB000CF582EE9BFEED9AFDEC99FC0FD5F0D63A
:10030B00E4CEFBE4CDFAE4CCF9A88222B800C1B963
:10031B000059BA002DEC8BF084CFCECDFCE5F0CBA1
:10032B00F97818EF2FFFEE33FEED33FDEC33FCEBDA
:10033B0033FB10D703994004EB99FB0FD8E5E4F995
:10034B00FA227818EF2FFFEE33FEED33FDEC33FC82
:10035B00C933C910D7059BE99A4007EC9BFCE99A76
:10036B00F90FD8E0E4C9FAE4CCFB2275F010EF2FBB
:10037B00FFEE33FEED33FDCC33CCC833C810D707BB
:10038B009BEC9AE899400AED9BFDEC9AFCE899F8F6
:0E039B000FD5F0DAE4CDFBE4CCFAE4C8F92289
:0E03A900C3E49FFFE49EFEE49DFDE49CFC2265
:1003B700EB9FF5F0EA9E42F0E99D42F0E89C45F09C
:0103C7002213
:100524000205A4E493A3F8E493A34003F68001F244
:1005340008DFF48029E493A3F85407240CC8C333D8
:10054400C4540F4420C8834004F456800146F6DFA7
:10055400E4800B010204081020408090076FE47EC1
:10056400019360BCA3FF543F30E509541FFEE4939C
:10057400A360010ECF54C025E060A840B8E493A363
:10058400FAE493A3F8E493A3C8C582C8CAC583CA8E
:10059400F0A3C8C582C8CAC583CADFE9DEE780BE46
:010784000074
:00000001FF
