:1001A400010800011100011006010F06010E0101F2
:0C01B4000A00010900010D00020B000010
:10018600D3EF9400EE940040147D707C00ED1D705A
:0D019600011CED4C70F7EF1F70E61E80E3BA
:0101A3002239
:0901F000C292D293D296C297226A
:0D01C100750E011201F97F327E00120186D9
:0D01CE00C294C292C293C295C296C29722FB
:0901F900D292C293D296C2972261
:09020200C296D297C292D2932257
:10014E00E50E602FE508D395105004D2948002C2BC
:10015E0094E508C394144003E4F508E511D3950F14
:10016E005004D2958002C295E511C394144008E460
:08017E00F51122C294C2952282
:03000B0002010AE5
:10010A00C0E0C0D0758CFC758A660508051112011D
:10011A004ED3E50C94C8E50B9400400E750A0075A1
:10012A000B00750C00D29175090130B41030B50D71
:10013A00E50AB40108050CE50C7002050BC291D062
:04014A00D0D0E032FF
:1001DB0020B7FD7F0A7E0012018620B7F3C2A33041
:0401EB00B7FDD2A3E7
:0101EF0022ED
:10009A00E4F5901201DB7FE87E031201867589017F
:1000AA00758CFC758A66D28CD2A9D2AF20B5033082
:1000BA00B404E50A600DE4F50E1201CE750A01D208
:1000CA009180E930B40C30B5091201C17F647E0019
:1000DA00800D20B41130B50E1201C17F2C7E0112A1
:1000EA000186C29180C620B5C330B4C0750E011214
:1000FA0002021201C77F2C7E01120186C29180ACD6
:0300000002000EED
:0C000E00787FE4F6D8FD758111020055E2
:10001A0002009AE493A3F8E493A34003F68001F262
:10002A0008DFF48029E493A3F85407240CC8C333E7
:10003A00C4540F4420C8834004F456800146F6DFB6
:10004A00E4800B01020408102040809001A4E47EA1
:10005A00019360BCA3FF543F30E509541FFEE493AB
:10006A00A360010ECF54C025E060A840B8E493A372
:10007A00FAE493A3F8E493A3C8C582C8CAC583CA9D
:10008A00F0A3C8C582C8CAC583CADFE9DEE780BE55
:0101C000003E
:00000001FF
