:0A02BD00C2C2C2C2C2C2C2C2C2C2A3
:0A02B2000808FEFDFBF7EFDFBF7F39
:0E027C00E4F580D2A7C2A78F80D2A6C2A62228
:0902C700C290D293C291D295229B
:10025100E4FEEF339294EF25E0FFD291A292E433D2
:080261004207C2910EBE08EA3B
:010269002272
:0C029800C293120251E4FF120251D293F3
:0102A4002237
:0E0218001202267D407F251202267D077F26DA
:10022600C293120251AC07AF05120251D293AF042A
:0102360022A5
:060198008B158A16891781
:10019E00C293120251AD07E4FCECC395185017E45C
:1001AE00FF120251AB15AA16A9178C82758300EFA8
:0A01BE0012013D0C80E3D293AF055F
:0101C8002214
:07015F007BFF7518057F2BE3
:060166008B158A168917B3
:10016C00C293120251AD07E4FCECC395185018ABC6
:10017C00150517E517AA167002051614F9120124B5
:0B018C00FF1202510C80E2D293AF057D
:010197002245
:1001C900C2907A0279C212015F7D027F3212022641
:1001D9007D0F7F201202267D027F221202267F21B7
:0C01E900120218D2907F057E0002028AEC
:1000DD007F071202988F20300637C2907B007A007E
:1000ED0079107518027F61120198C2A37F647E009A
:1000FD0012028AD2A37DFF7F27120226C2937FE2CE
:10010D00120251D293AF1012027C7FE87E030202DD
:07011D008AE4FF12027C22BC
:10008F008B198A1A891BC2907BFF7A0279BD75186A
:10009F00057F301201667A0279BD12015FAB19AA92
:1000AF001AA91B7518027FA01201667D027F21120B
:1000BF0002267F221202267D0F7F241202187D0F47
:0E00CF007F20120226D2907F057E0002028A58
:1001F5007F071202988F202005033004137DFF7FAF
:1002050027120226C2937FE1120251D2937F002268
:030215007F012244
:10026A00E4F512F513D2911202C71201C91200DD88
:02027A0080F80A
:0D028A00EFD3940040077E6EDEFE1F80F370
:010297002244
:0C02A500E4FDEDC39FE49E50030D80F6C5
:0102B100222A
:10023700EF1FAA0670011E4A600F7D16EDD39400CA
:0902470040EE7C0ADCFE1D80F390
:01025000228B
:03000000020003F8
:0C000300787FE4F6D8FD75812002004AE9
:10012400BB010689828A83E0225002E722BBFE02D9
:09013400E32289828A83E493220C
:10013D00F8BB010DE58229F582E5833AF583E8F0F8
:10014D00225006E92582C8F622BBFE05E92582C8A4
:02015D00F2228C
:10000F0002026AE493A3F8E493A34003F68001F29B
:10001F0008DFF48029E493A3F85407240CC8C333F2
:10002F00C4540F4420C8834004F456800146F6DFC1
:10003F00E4800B01020408102040809002B2E47E9D
:10004F00019360BCA3FF543F30E509541FFEE493B6
:10005F00A360010ECF54C025E060A840B8E493A37D
:10006F00FAE493A3F8E493A3C8C582C8CAC583CAA8
:10007F00F0A3C8C582C8CAC583CADFE9DEE780BE60
:0102BC000041
:00000001FF
