:0C00C3000A08C0F9A4B0999282F880905D
:10008F00C290E4F51274082512F8E6F5807FF47E2D
:0F009F00011200AE0512E512C3940A40E880E199
:1000AE00EF1FAA0670011E4A600A7DFFAC051DEC0B
:0400BE0060EE80F878
:0100C200221B
:03000000020003F8
:0C000300787FE4F6D8FD75811202004AF7
:10000F0002008FE493A3F8E493A34003F68001F278
:10001F0008DFF48029E493A3F85407240CC8C333F2
:10002F00C4540F4420C8834004F456800146F6DFC1
:10003F00E4800B01020408102040809000C3E47E8E
:10004F00019360BCA3FF543F30E509541FFEE493B6
:10005F00A360010ECF54C025E060A840B8E493A37D
:10006F00FAE493A3F8E493A3C8C582C8CAC583CAA8
:10007F00F0A3C8C582C8CAC583CADFE9DEE780BE60
:0100CF000030
:00000001FF
