:1008E3003D3D52616E67652046696E6465723D3DAC
:1008F30000303132333435363738392E2D4D446993
:100903007374616E63653A3030302E30636D00214D
:100913002121204F7574206F662072616E67650018
:10085100C181C182012300014A0A02280000022647
:100861000000142A00000000000000000000000049
:100871000000000000000000014B000445000000E2
:100881000002240000043E00000000C100014400F9
:0F089100012200014D00014C0601490601210022
:0C0A3300E4FDFC7F38120ADE7F057E0027
:100A3F00D3EF9400EE940040147D707C00ED1D7098
:0D0A4F00011CED4C70F7EF1F70E61E80E3F8
:010A5C002277
:100962007F017E00120981C2917F017E00120981FE
:0F097200C2A57F017E00120981C2A57F017E0010
:100981007D0A7C0000ED1D70011C144C70F6EF1FF8
:0709910070011E144E70E915
:01099800223C
:08000300D2A6E4F580C2A6229A
:100ABD007580FFC29012097DD29112097D120972C3
:0D0ACD00D2A512097DE58020E7F3AF80225D
:100AF700AB07120ABD8B80D290120962D2A57F0183
:050B07007E00020981DF
:040ADA007D017C001E
:100ADE00AB07ED4C6003120ABD8B80C29012096207
:090AEE00D2A57F017E00020981FE
:100A0200E4F580120A34120A33120A337F38120ACA
:100A1200DA7F08120ADA7D017C007F01120ADE7D8C
:100A2200017C007F06120ADE7D017C007F0C020A37
:010A3200DEE5
:070A5D009008F493FB7D01FA
:100A6400AE07AA0353050153060FED600343064086
:0D0A7400430680AF06120ADAAF02020AF74D
:080923007A097B017D01E4FF6C
:08092B008D0C8A0D8B0EA9074B
:10093300E4F50F530C0153010FE50E250FF582E487
:10094300350DF583E493FBD394194012E9D3940F47
:0E09530050E7AF01AD0C120A64050F0980DBFE
:010961002273
:0C000E00D2A17F027E00120981C2A12253
:0B0B3100D293D296C292C297020A3FF4
:090B4700C292C293C296C2972229
:0B0B3C00D292C293C296D297020A3FE9
:090B5000D293C296C292D2972200
:090B5900C293D296D292C29722F7
:100999007C00AF8DEFFEAD8BE42DF525EC3EF52403
:1009A900E4F58DF58BAC24AD251202217B7B7A14FD
:1009B900792E783E120116E4FBFA7920784112006B
:0409C9002512025A97
:0109CD002207
:0A04DA008B0E8A0F89108C118D1211
:1004E400E4F513F514E51224FFFFE51134FFFEC310
:1004F400E5149FEE6480F8E51364809840030206D7
:100504001DE5142401F516E43513F515C3E5169518
:1005140012E5116480F8E515648098400302060F23
:10052400E516AE157802C333CE33CED8F9AB0EAA96
:100534000FA910F5828E831203C8C004C005C0063B
:10054400C007E514AE137802C333CE33CED8F9AB6B
:100554000EAA0FA910F5828E8312041CD007D006B0
:10056400D005D004D31203B75003020601E514AE3C
:10057400137802C333CE33CED8F9AB0EAA0FA91029
:10058400F5828E831203C88E178F18E516AE157880
:1005940002C333CE33CED8F9F5828E831203C8C09A
:1005A40004C005C006C007E514AE137802C333CEF9
:1005B40033CED8F9AB0EAA0FA910F5828E83D007DB
:1005C400D006D005D0041203F8AE17AF18EE339559
:1005D400E0FDFCC004C005C006C007E516AE1578F2
:1005E40002C333CE33CED8F9AB0EAA0FA910F582CD
:1005F4008E83D007D006D005D0041203F80516E583
:1006040016600302051005150205100514E51460B3
:09061400030204E905130204E9E4
:01061D0022BA
:1006E500E4F508F509F50DF50CF50BF50AD2A012A0
:1006F500000E30A0FDD28E20A0FDC28E1209998F6A
:10070500418E408D3F8C3EE50925E025E0242AF801
:1007150012044C0509E50970020508C39405E508AE
:100725006480948040C7E4F508F509FB7A00792ACE
:100735007D05FC1204DAE5312535FFE5303534FE5B
:10074500E52F3533FDE52E3532FCEF2539FFEE3546
:1007550038FEED3537FDEC3536FCE47B03FAF9F868
:0B0765001203178F0D8E0C8D0B8C0AF9
:010770002266
:10061E008F0B8E0A8D098C08E47F887E13FDFCAB50
:10062E000BAA0AA909A808C31203B7500330000D7C
:10063E00C2007A097B127D01E4FF02092BE47B0ADA
:10064E00FAF9F8AF0BAE0AAD09AC08120317AF03F7
:10065E008F45E47B0AFAF9F8AF0BAE0AAD09AC0888
:10066E00120317E47B0AFAF9F8120317AF038F4649
:10067E00E47B64FAF9F8AF0BAE0AAD09AC081203CD
:10068E0017E47B0AFAF9F8120317AF038F47E47BDE
:10069E00E87A03F9F8AF0BAE0AAD09AC08120317EE
:1006AE008F48120923E5487F09120A5DE54793FB3F
:1006BE007D017F0A120A64E54693FB7D017F0B12D2
:1006CE000A649008FEE493FB7D017F0C120A64E538
:0706DE00457F0D120A5D22A9
:1007FD007F007E007D007C001206E512061EE47F60
:10080D0064FEFDFCAB41AA40A93FA83EC31203B74D
:10081D005006E4FFFE020B3CE47F64FEFDFCAB41A1
:10082D00AA40A93FA83ED31203B74014E47F2C7E03
:10083D0001FDFCA83E1203B75006E4FFFE020B318A
:03084D00120B4744
:010850002285
:03001B00020B6273
:050B6200D200C2A03228
:100B0C0020B7FD7F0A7E00120A3F20B7F3C2A33044
:040B1C00B7FDD2A3AC
:010B200022B2
:100A8100300218E522D3954C5004D2948002C294CE
:0E0A9100E522C394144006E4F52222C294220A
:100A9F00300118E54DD395495004D2958002C29587
:0E0AAF00E54DC394144006E4F54D22C2952295
:100B2100438901758CFF758AA3D2AFD28CD2A922D9
:03000B000208A147
:1008A100C0E0C0D0C28C758CFF758AA3E523D395B7
:1008B1004A5004D2A78002C2A705230521E523C31C
:1008C10094C84003752300E521C3940A400D052215
:1008D100054D120A81120A9F752100D28CD0D0D009
:0208E100E03203
:1009CE001200037F907E01120A3F120A02120A3BA6
:1009DE007A087BE3E4FDFF12092B120923438910E9
:1009EE00D2AFE4F58DF58BD2AB120B21120B0C129C
:0409FE0007FD80FB76
:10001E000202C6E86480F8E933E83360110460F048
:10002E00ED33EC337009E8FCE9FDEAFEEBFF220448
:10003E0060DED3EB9FEA9EE99DE8C2E78CF0C2F743
:10004E0095F0400CE8CCF8E9CDF9EACEFAEBCFFB0F
:10005E0012029185D0F05804700320D5B3E80470D5
:10006E00075002B2D50202D092D5EC0460F7E4CC70
:10007E00C0E0C398F8603B94186008400DD0E0FBD8
:10008E000202A8E4FBFAC9FC8028E830E406E4C9C1
:10009E00FBE4CAFCE830E305E4C9CACBFCE854072C
:1000AE006010F8C3E913F9EA13FAEB13FBEC13FC37
:1000BE00D8F130F52FC3E49CFCEF9BFFEE9AFEEDDA
:1000CE0099FDD0E0FBEF4E4D4C701222DB03020285
:1000DE00CDEC2CFCEF33FFEE33FEED33FDED30E7D0
:1000EE00EB0202A8EF2BFFEE3AFEED39FDD0E0FB5E
:1000FE0050130BBB00030202D0ED13FDEE13FEEF07
:08010E0013FFEC13FC0202A830
:10011600EC4D6011E8497017ED33EC3304600DE4E3
:10012600FCFFFEFD22E933E8330470F80202C61232
:10013600029158046009E4CC248150062850090233
:1001460002D02840030202CDC0E0EB4A7044B980D9
:1001560006D0E0FB0202BCEF4E701CBD8008EBFF30
:10016600EAFEE9FD80EBE98DF0A4FEE5F00201FF71
:10017600E9CDF9EAFEEBFFEF89F0A4FCE5F0CE89C4
:10018600F0A42EFFE435F0CD89F0A42DFEE435F081
:100196008067EF4E7005BD80D780C3EF8BF0A4ACAF
:1001A600F0EE8BF0A42CFCE435F0F8EF8AF0A42CEA
:1001B600E5F038FCE433CB8DF0A42CFCE5F03BF8FD
:1001C600EE8AF0A42CFCE5F038F8E433CF89F0A4ED
:1001D6002CFCE5F038CF3400CE89F0A42FFFE5F0F3
:1001E6003EFEE433C98DF0A42EFEE5F039CD8AF04B
:1001F600A42FFFE5F03EFEE43DFD33D0E0FB5007C3
:100206000BBB000F0202D0EC2CFCEF33FFEE33FEEB
:06021600ED33FD0202A819
:10021C0075F020800E75F010800575F0087D007E5D
:10022C00007F003392D530D5031203A9EC33401074
:10023C00EF33FFEE33FEED33FDEC33FCD5F0ED2266
:0E024C00E5F0247EA2D513CC92E7CDCEFF22A2
:10025A00EDD2E7CD33EC3392D524814006E4FFFE9C
:10026A00FDFC22FCE4CFCECDCC24E0501174FF80FB
:10027A00EDC3CC13CCCD13CDCE13CECF13CF047098
:07028A00F030D5DE0203A9EC
:10029100E9D2E7C933E833F892D5EDD2E7CD33ECB3
:0702A10033FC5002B2D5222C
:1002A800EC30E7100FBF000C0EBE00080DBD0004B7
:1002B8000BEB6014A2D5EB13FCED92E7FD2274FF63
:1002C800FCFDFEFF22E480F8A2D574FF13FC7D80BC
:0302D800E480EFD0
:0300000002077183
:0C077100787FE4F6D8FD75814D0207B8D2
:1002DB0075F008758200EF2FFFEE33FECD33CDCCDA
:1002EB0033CCC58233C5829BED9AEC99E58298405D
:1002FB000CF582EE9BFEED9AFDEC99FC0FD5F0D63A
:10030B00E4CEFBE4CDFAE4CCF9A88222B800C1B963
:10031B000059BA002DEC8BF084CFCECDFCE5F0CBA1
:10032B00F97818EF2FFFEE33FEED33FDEC33FCEBDA
:10033B0033FB10D703994004EB99FB0FD8E5E4F995
:10034B00FA227818EF2FFFEE33FEED33FDEC33FC82
:10035B00C933C910D7059BE99A4007EC9BFCE99A76
:10036B00F90FD8E0E4C9FAE4CCFB2275F010EF2FBB
:10037B00FFEE33FEED33FDCC33CCC833C810D707BB
:10038B009BEC9AE899400AED9BFDEC9AFCE899F8F6
:0E039B000FD5F0DAE4CDFBE4CCFAE4C8F92289
:0E03A900C3E49FFFE49EFEE49DFDE49CFC2265
:1003B700EB9FF5F0EA9E42F0E99D42F0E89C45F09C
:0103C7002213
:1003C800BB010DE58229F582E5833AF583020464D1
:1003D8005007E92582F8020458BBFE07E92582F890
:1003E800020470E58229F582E5833AF58302047CEC
:1003F800BB010DE58229F582E5833AF5830204C243
:100408005007E92582F802044CBBFE07E92582F86B
:040418000204CE22EA
:10041C00BB010DE58229F582E5833AF58302049947
:10042C005007E92582F802048CBBFE07E92582F807
:10043C000204A5E58229F582E5833AF5830204B22C
:0C044C00ECF608EDF608EEF608EFF622DC
:10077D000209CEE493A3F8E493A34003F68001F2BB
:10078D0008DFF48029E493A3F85407240CC8C3337D
:10079D00C4540F4420C8834004F456800146F6DF4C
:1007AD00E4800B0102040810204080900851E47E83
:1007BD00019360BCA3FF543F30E509541FFEE49341
:1007CD00A360010ECF54C025E060A840B8E493A308
:1007DD00FAE493A3F8E493A3C8C582C8CAC583CA33
:1007ED00F0A3C8C582C8CAC583CADFE9DEE780BEEB
:0108A0000057
:0C045800E6FC08E6FD08E6FE08E6FF22D0
:0C046400E0FCA3E0FDA3E0FEA3E0FF220B
:0C047000E2FC08E2FD08E2FE08E2FF22C8
:10047C00E493FC740193FD740293FE740393FF22C6
:0D048C00E6FB08E6F908E6FA08E6CBF822E0
:0C049900E0F8A3E0F9A3E0FAA3E0FB22E6
:0D04A500E2FB08E2F908E2FA08E2CBF822D7
:1004B200E493F8740193F9740293FA740393FB22A0
:0C04C200ECF0A3EDF0A3EEF0A3EFF022AD
:0C04CE00ECF208EDF208EEF208EFF2226A
:00000001FF
