:10018600010800010B00010A05010905C180C181B2
:1000DC00D3EF9400EE940040147D707C00ED1D7005
:0D00EC00011CED4C70F7EF1F70E61E80E365
:0100F90022E4
:0F019700750A06750906C292D293D296C29722B4
:10016400750A05750905D296C297C294C292C293C4
:010174002268
:10017500750A05750905C292D293C295C296C297B2
:010185002257
:0D01A600C294C292C293C295C296C2972223
:1000FA00300118E508D3950A5004D2948002C294BC
:0E010A00E508C394144006E4F50822C29422CE
:10011800300018E50BD395095004D2958002C2959A
:0E012800E50BC394144006E4F50B22C29522A9
:03000B00020136B9
:10013600C0E0C0D0758CFC758A660508050B1200F8
:09014600FA120118D0D0D0E03209
:10014F0020B7FD7F0A7E001200DC20B7F3C2A33078
:04015F00B7FDD2A373
:010163002279
:10009A00E4F59012014F7FE87E031200DC758901B6
:1000AA00758CFC758A66D28CD2A9D2AF20B308208F
:1000BA00B20512019780F530B30820B20512016427
:1000CA0080EA30B20820B30512017580DF1201A65A
:0200DA0080DACA
:0300000002000EED
:0C000E00787FE4F6D8FD758120020055D3
:10001A0002009AE493A3F8E493A34003F68001F262
:10002A0008DFF48029E493A3F85407240CC8C333E7
:10003A00C4540F4420C8834004F456800146F6DFB6
:10004A00E4800B0102040810204080900186E47EBF
:10005A00019360BCA3FF543F30E509541FFEE493AB
:10006A00A360010ECF54C025E060A840B8E493A372
:10007A00FAE493A3F8E493A3C8C582C8CAC583CA9D
:10008A00F0A3C8C582C8CAC583CADFE9DEE780BE55
:010196000068
:00000001FF
