:10017500010800010B00010A09010909C180C181BB
:1000ED00D3EF9400EE940040147D707C00ED1D70F4
:0D00FD00011CED4C70F7EF1F70E61E80E354
:01010A0022D2
:09018600C292D293D296C29722D4
:09018F00D292C293C296D29722CB
:07000300D296C297C29422BD
:0701A100C292D293C2952225
:09019800C292D293C296D29722C2
:10010B00300118E508D3950A5004D2948002C294AA
:0E011B00E508C394144006E4F50822C29422BD
:10012900300018E50BD395095004D2958002C29589
:0E013900E50BC394144006E4F50B22C2952298
:03000B00020147A8
:10014700C0E0C0D0758CFC758A660508050B1201E6
:090157000B120129D0D0D0E032D6
:1001600020B7FD7F0A7E001200ED20B7F3C2A33056
:04017000B7FDD2A362
:010174002268
:10009A00E4F5901201607FE87E031200ED75890194
:1000AA00758CFC758A66D28CD2A9D2AF30B4063070
:1000BA00B50312018620B40630B5031201A120B59A
:1000CA000630B40312000320B5E220B4DF12018F18
:1000DA007FC27E011200ED1201987FC27E011200DA
:0300EA00ED80C9DD
:0300000002000EED
:0C000E00787FE4F6D8FD758120020055D3
:10001A0002009AE493A3F8E493A34003F68001F262
:10002A0008DFF48029E493A3F85407240CC8C333E7
:10003A00C4540F4420C8834004F456800146F6DFB6
:10004A00E4800B0102040810204080900175E47ED0
:10005A00019360BCA3FF543F30E509541FFEE493AB
:10006A00A360010ECF54C025E060A840B8E493A372
:10007A00FAE493A3F8E493A3C8C582C8CAC583CA9D
:10008A00F0A3C8C582C8CAC583CADFE9DEE780BE55
:010185000079
:00000001FF
